:1000000044C05EC08AC05CC05BC05AC059C058C002
:1000100057C056C055C054C053C052C051C0A6CAE4
:10002000F0C83EC963C98CC9B8C9CBC9E8C928CAD8
:1000300029CA31CA48CA98CA97CA96CA95CA94CAE0
:1000400078CA8BCA09021900010100806409040002
:100050000001FF0000000705810308006412011081
:10006000010000000881179F0C0401000203011623
:1000700003550053004200740069006E007900537C
:100080000050004900040309040011241FBECFE5FD
:10009000D2E0DEBFCDBF10E0A0E6B0E0ECE4F6E1D8
:1000A00002C005900D92A037B107D9F721E0A0E773
:1000B000B0E001C01D92A839B207E1F713D8C4CA55
:1000C0009FCFA82FB92F80E090E041E050EA6095E3
:1000D00030E009C02D9182279795879510F08427ED
:1000E0009527305EC8F36F5FA8F30895EADF8D931C
:1000F0009D930895A6E088279927AA9569F001970E
:10010000E1F3B399FCCFB39BFECF81E09927A6B36F
:10011000019611F0A871D9F70895CF93CFB7CF9377
:10012000C395B39BE9F7B39B0BC0B39B09C0B39BCB
:1001300007C0B39B05C0B39B03C0B39B01C0D5C030
:100140000F92DF93C0916A01DD27CF58DE4F012E59
:10015000B39B03C0DF910F90E6CF2F930F931F93B4
:100160004F932FEF4F6F06B303FB20F95F933F933D
:1001700050E03BE065C016B30126502953FDC895F9
:1001800056B3012703FB25F92F7306B3B1F05027AF
:10019000102713FB26F906B22230F0F000C016B388
:1001A000012703FB27F90126502906B22430E8F580
:1001B0004F77206816B30000F6CF50274F7D20629E
:1001C00006B2102F000000C006B3002650291027E9
:1001D00013FB26F906B2E2CF4F7B06B3206400C0C2
:1001E000DACF01265029187106B269F14E7F2160DD
:1001F000012F16B328C0002650294D7F06B2226079
:10020000102F29C0012650294B7F06B22460012FF0
:100210002DC016B301265029477F2860000006B282
:100220002EC04F7E06B3206130C0422706B34993EB
:1002300000265029102706B24FEF13FB20F9297F23
:1002400016B379F2187159F10126502906B2012727
:1002500003FB21F9237F06B371F2002650293150A8
:10026000D0F006B2102713FB22F9277E16B351F205
:1002700001265029012703FB06B223F92F7C49F2FE
:10028000000006B3102713FB24F90026502906B2FC
:100290002F7939F270CF10E21ABF002719C03B50F6
:1002A0003195C31BD04010E21ABF0881033C09F10D
:1002B0000B34F9F0209168011981110F1213EDCF61
:1002C0004A81441F093651F10D3211F0013E29F7E0
:1002D00000936F013F915F914F911F910F912F916B
:1002E000DF910F90CAB7C5FD1BCFCF91CFBFCF9184
:1002F000189520916F01222369F310916D0111234C
:1003000079F534307AF130936D01209369011091C1
:100310006A013BE0311B30936A0124C000916D01FA
:100320000130F4F40AE54F7049F43091610034FD76
:100330001AC000936100C1E5D1E019C030915C01A1
:1003400034FD11C000935C01CDE5D1E010C005275C
:1003500010E000C021C0052710E0C89508BB14C0FC
:100360003AE501C032ED032EC0E0D0E032E017B331
:100370001861C39A08B317BB58E120E84FEF20FF7C
:10038000052708BB279517951C3F28F70000455205
:10039000B0F720FF0527279508BB17951C3FB8F637
:1003A00029913A9561F7077E10916E01110F08BBF4
:1003B000C250D04011F01093680110E21ABF0860DB
:1003C00017B3177E402F477E54E05A95F1F708BBCC
:1003D00017BB48BB7FCFCF93DF9360916D01635014
:1003E00067FDB7C080916A01CCE0D0E0C81BD1099D
:1003F000CF58DE4F809169018D3209F099C0683085
:1004000009F0A5C083EC809351018AE580936100D7
:10041000109271008881807639F0CE01F0D1982F4A
:100420008F3F09F474C07AC09A8110925A01898171
:10043000811106C010925B012AE531E092E062C0B2
:10044000853019F490936E015AC0863009F041C08E
:100450008B81813049F48DE590E090936C0180931D
:100460006B0180E492E132C0823049F484E490E090
:1004700090936C0180936B0180E499E127C08330F5
:1004800019F5911109C085E890E090936C01809373
:100490006B0180E494E01AC09130B1F0923049F4DD
:1004A0008FE690E090936C0180936B0180E496E17D
:1004B0000DC0933049F485E690E090936C018093F1
:1004C0006B0180E098E002C080E490E080937100CE
:1004D00025C0883069F0893019F4909370010FC0FD
:1004E0008A3049F08B3059F48BE480935D0107C06A
:1004F00020E731E002C02AE531E091E003C02AE5BF
:1005000031E090E030936C0120936B0107C088814B
:1005100087FD9E8180E88093710007C08F818111E3
:1005200004C08E81891708F4982F909360000FC043
:100530008091710087FF0BC0CE01F9D08F3F21F46D
:100540008EE18093610003C08111109260001092CF
:100550006D018091610084FF56C0809160008F3FE3
:1005600009F451C0C82F893008F0C8E08C1B809373
:1005700060009091510188E8892780935101CC2334
:1005800089F12091710027FF08C06C2F82E591E06E
:10059000AFD0C82F893088F525C080916B0190912C
:1005A0006C0126FF0BC0A2E5B1E0FC012C2F280F47
:1005B00034913D9331962E13FBCF09C0DC01E2E567
:1005C000F1E02C2F2E0F3D9131932E13FCCF2FEF06
:1005D0002C0F30E02F5F3F4F820F931F90936C01E1
:1005E00080936B016C2F82E591E080DDCC5FCC3095
:1005F00041F08FEF8093600004C08FEF8093600024
:10060000CEE1C093610084E196B3987131F48150DA
:10061000D9F710926E0110926801C1E08111C0E01B
:10062000809170008C1729F0C11101C014D3C093C0
:100630007000DF91CF910895AC9A8BB780628BBF29
:10064000ECE5F1E08BE481838AE580830895FC0189
:10065000DB01AC014C5F5F4F619128E030E080E846
:1006600090E0782F762309F0C09A70916400072EED
:1006700000C00000000000000A94D1F7C29A7091F7
:100680006400072E00C00000000000000A94D1F7AB
:10069000990FB1999F5FC098C298869521503109F2
:1006A00001F79D93E417F507B9F6089580914D0180
:1006B00090914E019C012F5F3F4F30934E0120934C
:1006C0004D0120914A0127FF02C0880F991F80FD2C
:1006D000286020934601292F26952093470196955F
:1006E00087958093480162E471E086E491E0AFCFA2
:1006F000EF92FF921F93CF93DF931F92CDB7DEB798
:10070000182F7C018E2D811B861748F46983CEDF5C
:1007100080914501F70181937F016981F3CF862F95
:100720000F90DF91CF911F91FF90EF900895DF928E
:10073000EF92FF920F931F93CF93DF93F62EE82E45
:10074000EC0130E6D32E8C2F8E198F1580F5899110
:1007500080934901ABDF809146018D25809346014E
:1007600000E010E080914B0190914C0108171907AF
:1007700050F762E471E086E491E069DF8091450121
:1007800090914901891308C090915001891721F077
:1007900090914F018913D7CF8091640090E025E0BC
:1007A000880F991F2A95E1F7080F191FDBCF81E009
:1007B000DF91CF911F910F91FF90EF90DF900895FF
:1007C00028B3342F3095232338B3432B680F791F78
:1007D0008617970799F0FC013191CF0158E048BB8B
:1007E000330F5A9500C008F028BB00C0000028BB9A
:1007F00021F000C000C000C0F2CFEACF0895CF932F
:10080000DF93EC012981211108C081E28983D09313
:100810006C01C0936B0198E01AC2213011F486B3C9
:100820000CC16A81223011F468BB10C2962F362F9A
:10083000377041E050E0032E02C0440F551F0A9468
:10084000E2F7233009F497C0243021F488B3482B11
:1008500048BBFCC1253051F460936400B99887B35C
:10086000856287BB88B3887D88BBF0C1263049F498
:10087000B898C098B998C198BA98C298BD98C598C8
:10088000E5C1273051F4BE01CE010296E0DED093DF
:100890006C01C0936B0194E0DAC1283031F46093AD
:1008A00050018B8180934F01D1C1EC81FD81F09388
:1008B0004E01E0934D01293011F480E211C02B303C
:1008C00011F480EA0DC0EA81FB81F0934C01E093C2
:1008D0004B012A3011F480E403C02C3029F480EC61
:1008E00080934A019FEFB3C12D3021F487B3409527
:1008F000482304C02E3021F487B3482B47BBA6C140
:100900002F3009F5611105C08091350187B9A59A8D
:100910000CC0613031F480913501816087B9A29AB1
:1009200004C0623011F48FE887B9369A3699FECF49
:1009300084B1888385B18983D0936C01C0936B01A6
:1009400014BA92E084C1203159F4B89AB99A8AB5A0
:10095000806A8ABD8AB583608ABD83B7856044C0DA
:10096000213121F469BD8C8188BD70C1223109F427
:100970006DCF233121F488B34095482369CF2431CA
:1009800059F486B390E04823592302C05595479502
:100990003A95E2F7488352C02631A1F561110AC0A9
:1009A00083B78B7F83BF83B78D7F83BF83B781601E
:1009B00083BF4DC1613031F483B78B7F83BF83B771
:1009C00082600FC0623031F483B78B7F83BF83B7FF
:1009D000826014C0633051F483B7846083BF83B7EF
:1009E0008D7F83BF83B78E7F83BF30C1643009F0B2
:1009F0002DC183B7846083BF83B78D7F83BF83B7E7
:100A00008160F2CF2F3159F48B8190E0982F8827A5
:100A1000860F911D909363008093620017C120326E
:100A200019F41ABC13BE12C1213221F46093900153
:100A300081E0CBC0223241F484E18883D0936C0101
:100A4000C0936B0191E003C12332C9F4379A96B188
:100A50008A81892B86B99B81913059F038F0923088
:100A600009F0F4C080913501806906C0109235010B
:100A7000EEC080913501806880933501E7C028324F
:100A800049F487E891E090936C0180936B01909119
:100A90008F01DDC0293211F482E097C02A3211F4AF
:100AA00083E00BC02B3211F484E08FC02C3211F4A0
:100AB00088E08BC02D3231F489E08093340160935B
:100AC0009001C4C02E3261F48BE0809334016093B6
:100AD00090018B81809391018C8180939201B6C0AB
:100AE0002F3259F4613031F4B89AB99ABA9A6093B6
:100AF0003C01ACC010923C01A9C0203349F4609382
:100B000038018B81809337018C81809336019EC0A0
:100B1000213331F470E0709341016093400196C03D
:100B2000223311F485E051C0233321F46093900106
:100B300086E04BC0263371F565FF1BC0E091720063
:100B4000E03CB8F48B81AE2FB0E0AC58BF4F8C9333
:100B50008C81A1E0AE0FB0E0AC58BF4F8C9383E026
:100B60008E0F809372008D81EE5FF0E0EC58FF4FA6
:100B700080838A8184FF6AC080917200882309F48F
:100B800065C081E18093340187B3842B87BB409398
:100B900073005CC02733A1F480916D0090916E00CA
:100BA00045D580916D0090916E006B8101963ED588
:100BB00080916D0090916E006C81029637D546C091
:100BC000283331F46093900182E1809334013EC078
:100BD000822F807F803EE1F48AE080933401822F6F
:100BE00087708093900128702093910120E080917C
:100BF0009001281758F5822F90E00296FE01E80F29
:100C0000F91F3081FC01E057FE4F30832F5FEFCF9B
:100C1000803FE1F487E080933401822F88708093D5
:100C2000900127702093910120E080919101281775
:100C300068F4822F90E00296FE01E80FF91F3081E0
:100C4000FC01E057FE4F30832F5FEFCF90E0892FFC
:100C5000DF91CF910895DF92EF92FF920F931F9350
:100C6000CF93DF9308E010E0C0E0D0E8DD2EDC0E8B
:100C7000D1BE40DA7C0184E3E81689E0F8060CF482
:100C8000CD2DD6950150110989F78FEF8C0F81BFBB
:100C90000C2F10E00F5F1F4F21B730E00217130732
:100CA0008CF028DA8453994097FF03C09195819581
:100CB00091098E159F0514F4C1B77C0181B78F5F30
:100CC00081BFEACFC1BF61B780E090E0DF91CF91F3
:100CD0001F910F91FF90EF90DF90A8C4882311F02F
:100CE000B89801C0B89A90E0292F30E040914001B7
:100CF000509141012417350730F425E02A95F1F78A
:100D000000C09F5FF1CFBA9890E0292F30E040916A
:100D10004001509141012417350730F425E02A9510
:100D2000F1F700C09F5FF1CFBA9A90E0292F30E031
:100D300040914001509141012417350730F425E0DE
:100D40002A95F1F700C09F5FF1CF8111B89A20E09A
:100D5000822F90E040914001509141018417950706
:100D600030F485E08A95F1F700C02F5FF1CF089548
:100D7000B89820E0822F90E04091400150914101CD
:100D80008417950730F485E08A95F1F700C02F5F4E
:100D9000F1CFBA9820E0822F90E04091400150912D
:100DA00041018417950730F485E08A95F1F700C07A
:100DB0002F5FF1CF86B390E0292F30E040914001C2
:100DC000509141012417350730F425E02A95F1F7B9
:100DD00000C09F5FF1CFBA9A90E0292F30E0409198
:100DE0004001509141012417350730F425E02A9540
:100DF000F1F700C09F5FF1CF8170089588B38A7FBB
:100E000088BBBA98B89820E0822F90E040914001CA
:100E1000509141018417950730F485E08A95F1F7E8
:100E200000C02F5FF1CF089587B38A7F87BB20E092
:100E3000822F90E040914001509141018417950725
:100E400030F485E08A95F1F700C02F5FF1CFB89AB2
:100E500020E0822F90E040914001509141018417A1
:100E6000950730F485E08A95F1F700C02F5FF1CF48
:100E7000BA9A20E0822F90E04091400150914101C8
:100E80008417950730F485E08A95F1F700C02F5F4D
:100E9000F1CF0895B89A20E0822F90E04091400170
:100EA000509141018417950730F485E08A95F1F758
:100EB00000C02F5FF1CFBA9A20E0822F90E04091DE
:100EC0004001509141018417950730F485E08A95DF
:100ED000F1F700C02F5FF1CFBA9820E0822F90E0A9
:100EE00040914001509141018417950730F485E00D
:100EF0008A95F1F700C02F5FF1CFB89820E0822FDC
:100F000090E040914001509141018417950730F4E1
:100F100085E08A95F1F700C02F5FF1CF0895CF9358
:100F2000DF93D82FC8E08D2F8078D8DEDD0FC15039
:100F3000D1F7DF91CF911CCF1F93CF93DF93182F61
:100F4000D8E0C0E0CC0F14DFC82BD150D9F790E027
:100F5000292F30E04091400150914101241735077D
:100F600030F485E08A95F1F700C09F5FF1CF11233F
:100F700011F080E001C081E0B1DE20E0822F90E03E
:100F800040914001509141018417950730F485E06C
:100F90008A95F1F700C02F5FF1CF8C2FDF91CF91B1
:100FA0001F910895B89A10928701109288011092AB
:100FB000890110928A0110928B015FB7F894C09852
:100FC00027E038EE60E0215030406040E1F700C09B
:100FD0000000C09A9CED9A95F1F7B898C09890E0FF
:100FE000B09903C09150E1F74DC090E0B09B07C0AD
:100FF00025E02A95F1F700C09150C1F743C048E2BF
:1010000030E097E0A1E0B0E020E0B09903C02150CB
:10101000E1F738C020E0B09B06C067E36A95F1F7BE
:101020002F5FC9F72FC0243068F0E32FF0E0E957B5
:10103000FE4F2081BD01092E01C0660F0A94EAF718
:10104000622B6083911103C03F5F97E001C0915014
:101050004150D1F65FBFE091870120918801509106
:10106000890190918A0160918B0170E030E02E0F30
:10107000311D250F311D290F311D332762177307CD
:1010800071F503C05FBF40E82BC0811115C080918E
:10109000870190E06AE070E0B0D28093870190937E
:1010A00088018091890190E06AE070E0A6D2809387
:1010B000890190938A0114C0813091F48091880154
:1010C00090918701909388018093870180918A0194
:1010D0009091890190938A018093890101C04FEF1B
:1010E000842F089580E287BB88BB80E090E096D291
:1010F0008F3F09F081BF00916D0010916E00C80113
:101100008DD2E82EC801019689D2F82EC801029628
:1011100085D2982F80ED8E0D8A3008F05CC280ED6C
:101120008F0D8A3008F057C280ED890F8A3008F0A1
:1011300052C200916D0010916E00C8016FD290E014
:101140009093680080936700C801019667D290E091
:1011500090936A0080936900C80102965FD290E084
:1011600090936C0080936B00BB9A84E1E2EBF1EF0B
:101170003197F1F700C000008150C1F7BB9885E0BE
:1011800090E090934101809340011092630010928F
:1011900062009EE088E10FB6F894A89581BD0FBE6D
:1011A00091BD10923B0110923A01109239011092B8
:1011B0003801109237011092360110923D011092C1
:1011C00034013ADA7894B898C098B998C198BA9826
:1011D000C298BD98C5981AE100E495E0F92E2BE17C
:1011E000E22E80E8D82EA895F6D8E09134018E2F13
:1011F00090E08331910508F0B7C1FC01E15FFF4F3A
:101200000994B89AB998BA9AC29A109287018091B3
:10121000900180933F01D0923E0180913E0188234E
:1012200009F462C0C09820E0822F90E040916200F3
:10123000509163008417950730F4F5E0FA95F1F7C3
:1012400000C02F5FF1CF90913E0180913F01892333
:1012500009F0C09AC29880918701880F8093870116
:1012600096B32091870191FB882780F9820F8093A4
:10127000870120E0822F90E040916200509163004E
:101280008417950730F445E04A95F1F700C02F5FC9
:10129000F1CFC29A80913E01869580933E01BDCFE9
:1012A000BA9AC2988BEB97E00197F1F700C0000063
:1012B0008FB7F894C29AE0E2F1E03197F1F700C0FD
:1012C000BA9896B392FB992790F9C92FF0E0DF2FD7
:1012D0009E0141E02427209387018FBF8BE996E090
:1012E0000197F1F7BA9AC29A81E020C180919001EA
:1012F00080933E01BA9A88E02FB7F894C2989091F3
:101300003E0190FF0BC091E29A95F1F7C29AE7E097
:10131000F1E03197F1F700C0000009C0E7EFF0E01D
:101320003197F1F70000C29AF7E3FA95F1F790913F
:101330003E01969590933E012FBF8150E9F614C16E
:101340001092870188E0909187019695909387018C
:10135000BA9A2FB7F894C29841E24A95F1F7C29A27
:1013600057E35A95F1F7BA9896B392FB992790F9FB
:1013700090933E012FBFE2EEF0E03197F1F700C00D
:10138000000090913E01992329F090918701906887
:10139000909387018150B9F6A7CFBA9A9FB7F89476
:1013A000C298F1E2FA95F1F7C29A47E34A95F1F74C
:1013B000BA9886B382FB882780F9809387019FBF04
:1013C00093CFBA9A8FB7F894C2989091900190FFFA
:1013D0000BC051E25A95F1F7C29AE7E0F1E031977C
:1013E000F1F700C0000009C0E7EFF0E03197F1F736
:1013F0000000C29AF7E3FA95F1F78FBFADC0B99A32
:10140000B898BA9AC298E0923F011DB980919001B4
:101410008111C59810923E01E0913E0180919101A9
:10142000E81738F5F0E0EE56FE4F80818FB90EB91F
:1014300080913F018DB920E0822F90E040916200C1
:10144000509163008417950730F445E04A95F1F711
:1014500000C02F5FF1CF769BEBCF80913E01E82F4C
:10146000F0E09FB1E957FE4F90838F5F80933E017C
:10147000D3CF809190018111C59A80913E0156C0D1
:10148000BDDC72C080E090E0CFDC8091900147DD50
:1014900080933E0115C0B12C80919001B81650F494
:1014A000EB2DF0E0EE56FE4F808139DD80933E015A
:1014B000B394F2CF809191018111ECDC80913E01D7
:1014C0008093870111CF80919001811102C0B12CCE
:1014D00019C0912C292D30E08091910190E0019765
:1014E000A90149575E4F5A012817390734F481E0A2
:1014F00023DDF50180839394EDCF80E01DDDF501C0
:1015000080830EC080919101B81650F48B2C912CE1
:1015100081E012DDF401E957FE4F8083B394F2CFEE
:10152000809192018111B6DC8091910180938F01AD
:101530001BC08CE190E10197F1F700C00000BFB63D
:10154000F8946091720070E04091730084E790E03D
:1015500037D910927200BFBE07C08091900122DD82
:1015600080938B01F0928F011092340180913C01A5
:10157000882309F438CE80913D0181110DC08091FE
:10158000380180933B018091370180933A0180912B
:1015900036018093390119C090913B01981710F4DE
:1015A000C09801C0C09A90913D0180913A0189177D
:1015B00010F4C19801C0C19A90913D018091390108
:1015C000891710F4C29801C0C29A80913D018F5FC3
:1015D00080933D0106CE65E3C80128D080916D005F
:1015E00090916E0061E3019621D080916D00909101
:1015F0006E0062E302961AD09CCD0024552704C0E9
:10160000080E591F880F991F009729F07695679546
:10161000B8F37105B9F7802D952F0895E199FECFA4
:101620009FBB8EBBE09A99278DB30895262FE19931
:10163000FECF1CBA9FBB8EBB2DBB0FB6F894E29AAF
:0C164000E19A0FBE01960895F894FFCFC8
:10164C00FF5A0A000A08033500310032002000005E
:00000001FF
